:04000000B9EF0AF05A
:101000000001000A006400E803102741637175695C
:10101000736974696F6E20636F6D706C657465645D
:10102000207072657373205320746F207265616441
:10103000206F72205220746F2072657365743A209D
:101040000A004163717569736974696F6E20696E16
:101050002070726F677265737320706C6561736561
:1010600020776169743A200A00417665726167658C
:10107000206F66206C6173742035302053616D7071
:101080006C65733A202564206D41200A0053616D20
:10109000706C696E67206E756D6265722025643AAA
:0B10A000202564206D41203A0A00006A
:1010AC00110E166E000E176E94D0250E1C18D8B4A7
:1010BC0009D00DC0D9FF0EC0DAFF1CC0DFFF0D4AEE
:1010CC000E2A87D0000E186E0FC0F6FF10C0F7FF67
:1010DC000F4A102A000EF86E0800F5CF1CF01C50B9
:1010EC00000AD8B484D0640AD8B403D00D0AD8A4AA
:1010FC0070D016C0D9FF17C0DAFFDECF1AF0DDCFE3
:10110C001BF0020E1626000E17221BAE06D0030E85
:10111C0018121A6C1B1ED8B01B2A010E1C6E050E61
:10112C001C18D8B415D01C50020D010EF324F66E09
:10113C00100EF420F76EF86A000EF8220900F55034
:10114C001A5C0900F5501B58D8A002D01C2AE7D70E
:10115C0018C015F0030E1516D8B408D00DC0D9FF61
:10116C000EC0DAFF2D0EDF6E0D4A0E2A1CC019F0D0
:10117C002CD01950020D010EF324F66E100EF42033
:10118C00F76EF86A000EF8220900F5CF03F00A009A
:10119C00F5CF04F01AC001F01BC002F005EC0AF008
:1011AC0001C008F002C009F0000E0B6E0A0E0A6EA8
:1011BC0051EC0AF00850300F1C6E0DC0D9FF0EC058
:1011CC00DAFF1CC0DFFF0D4A0E2A19061928D8A415
:1011DC00D0D70FC0F6FF10C0F7FF0F4A102A000E31
:1011EC00F86E0800F5CF1CF01C50D8A45ED70DC0CB
:1011FC00D9FF0EC0DAFF000EDF6E1200D098000E81
:10120C00956E9268D6EC0AF0310E0D6E000E0E6ED5
:10121C00420E0F6E100E106E56EC08F072EC0AF0C7
:10122C00C8EC0AF0D6EC09F0000E236E000E246E0A
:10123C0014D02450010DC40EF324D96E000EF420EA
:10124C00DA6EDF501D6E1E6A1DC001F01EC002F06A
:10125C002350A6EC0AF0232A242A320E2464E9D760
:10126C00310E0D6E000E0E6E0B0E0F6E100E106EFC
:10127C0056EC08F072EC0AF0E0EC0AF0520E2B1867
:10128C00D8A403D0FA6A00EF00F0530E2B18D8A4A0
:10129C00E7D772EC0AF0E6EC0AF0000E266E000EB0
:1012AC00256E26BE06D0265023E1330E255CD8B021
:1012BC001FD0255091EC0AF0000E206E000E1F6E10
:1012CC001F4A202A310E0D6E000E0E6E8D0E0F6E03
:1012DC00100E106E25C011F026C012F02DC013F0A8
:1012EC00146A56EC08F072EC0AF0254A262AD9D773
:1012FC00000E226E000E216E214A222A310E0D6E36
:10130C00000E0E6E690E0F6E100E106E2CC011F0CA
:10131C00126A56EC08F072EC0AF0A2D7000E066EB8
:10132C0004AE06D0036C041ED8B0042A010E066E5F
:10133C0002AE06D0016C021ED8B0022A010E061AAB
:10134C00000E086E000E076E03500410D8B41CD0AB
:10135C00010E056E04D0D89003360436052A04AE6F
:10136C00FAD7D890073608360350015C045002585F
:10137C00D8A005D00350015E0450025A0780D890C3
:10138C0004320332052EEDD70650D8B404D0076CC6
:10139C00081ED8B0082A07C001F008C002F01200DD
:1013AC00000E046E000E036E04BE06D0045026E13F
:1013BC00330E035CD8B01200C282C2B2FED7C40E88
:1013CC000324D96E000E0420DA6EC4CFDFFF070EA3
:1013DC00026E580E016E5A0EE82EFED7012EFCD767
:1013EC00022EFAD7320E03180410D8A404D0000E23
:1013FC00046E330E036E034A042AD6D71200000E75
:10140C00066E000E056E03500410D8B41CD0010EED
:10141C00076E04D0D89003360436072A04AEFAD7E8
:10142C00D890053606360350015C04500258D8A0FB
:10143C0005D00350015E0450025A0580D890043246
:10144C000332072EEDD705C001F006C002F01200E2
:10145C00000E0A6E010E096E0ABE06D00A500FE18C
:10146C00330E095CD8B00BD0600E0924D96E000E77
:10147C000A20DA6EDF502C26094A0A2AEDD72CC036
:10148C0001F0026A000E046E320E036E94EC09F049
:10149C0001502C6E12000A500B10D8B418D0010E4B
:1014AC000C6E04D0D8900A360B360C2A0BAEFAD739
:1014BC000A50085C0B500958D8A004D00A50085E9A
:1014CC000B50095AD8900B320A320C2EF1D708C0A7
:1014DC0008F009C009F01200000E026E000E016E39
:1014EC0010D0310E0124D96E000E0220DA6EDF50BE
:1014FC00AD6E014A022A290EE82EFED700D09EA816
:10150C00FED7310E0124D96E000E0220DA6EDF50A8
:10151C00D8B41200E6D70B6E0BC0A9FFA69EA69CF2
:10152C00A680A8CF2DF0600E2724D96E000E28209F
:10153C00DA6E2DC0DFFF274A282A2EEC0AF01200A3
:10154C00036EA68403C0A9FF01C0A8FFA69EA69C9B
:10155C00F29E550EA76EAA0EA76EA682F28EA6B2AA
:10156C00FED7A694120000EE60F0960EEE6AE80626
:10157C00FDE100EE27F00D0EEE6AE806FDE100013C
:10158C0004EF09F09268000E956E000E836E000E4B
:10159C00806E010EC26E000EC16E000EC06E120087
:1015AC00948E949CAC98AC947E960F0EAF6EAB8ED2
:1015BC00AC8A1200AB889EAAFED7AECF2BF01200DD
:0415CC00C2901200B7
:020000040020DA
:08000000FFFFFFFFFFFFFFFF00
:020000040030CA
:0E000000FF021F1EF38384FFFFC0FFE0FF40DE
:00000001FF
