:040000007CEF0AF097
:101000000001000A006400E803102741637175695C
:10101000736974696F6E20636F6D706C657465645D
:10102000207072657373205320746F207265616441
:10103000206F72205220746F2072657365743A209D
:101040000A004163717569736974696F6E20696E16
:101050002070726F677265737320706C6561736561
:1010600020776169743A200A00417665726167658C
:10107000206F66206C6173742035302053616D7071
:101080006C65733A202564206D41200A0053616D20
:10109000706C696E67206E756D6265722025643AAA
:1010A000202564206D41203A0A00506C656173650B
:0F10B00020776169742E2E2E2E2E2E200A00001E
:1010C000110E166E000E176E94D0250E1C18D8B493
:1010D00009D00DC0D9FF0EC0DAFF1CC0DFFF0D4ADA
:1010E0000E2A87D0000E186E0FC0F6FF10C0F7FF53
:1010F0000F4A102A000EF86E0800F5CF1CF01C50A5
:10110000000AD8B484D0640AD8B403D00D0AD8A495
:1011100070D016C0D9FF17C0DAFFDECF1AF0DDCFCE
:101120001BF0020E1626000E17221BAE06D0030E71
:1011300018121A6C1B1ED8B01B2A010E1C6E050E4D
:101140001C18D8B415D01C50020D010EF324F66EF5
:10115000100EF420F76EF86A000EF8220900F55020
:101160001A5C0900F5501B58D8A002D01C2AE7D7FA
:1011700018C015F0030E1516D8B408D00DC0D9FF4D
:101180000EC0DAFF2D0EDF6E0D4A0E2A1CC019F0BC
:101190002CD01950020D010EF324F66E100EF4201F
:1011A000F76EF86A000EF8220900F5CF03F00A0086
:1011B000F5CF04F01AC001F01BC002F053EC0AF0A6
:1011C00001C008F002C009F0000E0B6E0A0E0A6E94
:1011D0009DEC0AF00850300F1C6E0DC0D9FF0EC0F8
:1011E000DAFF1CC0DFFF0D4A0E2A19061928D8A401
:1011F000D0D70FC0F6FF10C0F7FF0F4A102A000E1D
:10120000F86E0800F5CF1CF01C50D8A45ED70DC0B6
:10121000D9FF0EC0DAFF000EDF6E1200D098000E6C
:10122000956E92681CEC0BF0350E0D6E000E0E6E76
:10123000420E0F6E100E106E60EC08F0BEEC0AF05D
:101240000DEC0BF0F1EC09F0000E226E000E216E99
:10125000000E246E000E236E14D0D8902334D96E65
:101260002434DA6E600ED926000EDA22DECF01F0C9
:10127000DDCF02F02150FAEC0AF0214A222A234A5B
:10128000242A24BEEAD7245004E1330E235CD8A0DC
:10129000E4D7350E0D6E000E0E6E0B0E0F6E100E97
:1012A000106E60EC08F0BEEC0AF026EC0BF0520E6B
:1012B0002D18D8B4D088530E2D18D8A4EAD7350EDF
:1012C0000D6E000E0E6EAA0E0F6E100E106E60ECFC
:1012D00008F0BEEC0AF02CEC0BF0000E266E000EAF
:1012E000256E26BE06D0265023E1330E255CD8B0ED
:1012F0001FD02550DDEC0AF0000E1E6E000E1D6E94
:101300001D4A1E2A350E0D6E000E0E6E8D0E0F6ECE
:10131000100E106E25C011F026C012F02EC013F072
:10132000146A60EC08F0BEEC0AF0254A262AD9D7E8
:10133000000E206E000E1F6E1F4A202A350E0D6E05
:10134000000E0E6E690E0F6E100E106E27C011F09B
:1013500028C012F060EC08F0BEEC0AF09AD7000E3C
:10136000066E04AE06D0036C041ED8B0042A010E2B
:10137000066E02AE06D0016C021ED8B0022A010E23
:10138000061A000E086E000E076E03500410D8B443
:101390001CD0010E056E04D0D89003360436052A01
:1013A00004AEFAD7D890073608360350015C0450D3
:1013B0000258D8A005D00350015E0450025A07809D
:1013C000D89004320332052EEDD70650D8B404D09D
:1013D000076C081ED8B0082A07C001F008C002F048
:1013E0001200000E046E000E036E04BE06D0045000
:1013F0002EE1330E035CD8B01200C282C2B2FED717
:10140000C450016E026AD8900334D96E0434DA6E87
:10141000600ED926000EDA2201C0DEFF02C0DDFF19
:10142000070E026E580E016E5A0EE82EFED7012EE0
:10143000FCD7022EFAD7320E03180410D8A404D019
:10144000000E046E330E036E034A042ACED7120038
:10145000000E0A6E010E096E0ABE06D00A5014E193
:10146000330E095CD8B010D0D8900934D96E0A3444
:10147000DA6E000ED926010EDA22DE502726DD5064
:101480002822094A0A2AE8D727C001F028C002F01A
:10149000000E046E320E036EAFEC09F001C027F0AF
:1014A00002C028F01200000E066E000E056E0350FA
:1014B0000410D8B41CD0010E076E04D0D8900336A7
:1014C0000436072A04AEFAD7D890053606360350FC
:1014D000015C04500258D8A005D00350015E0450AE
:1014E000025A0580D89004320332072EEDD705C08A
:1014F00001F006C002F012005C0EF66E160EF76EDA
:10150000000EF86E0900F5CF38F00900F5CF39F07C
:1015100001EE00F0640EEE6AE806FDE100EE60F018
:10152000960EEE6AE806FDE100EE27F0110EEE6A77
:10153000E806FDE100010EEF09F00A500B10D8B4E7
:1015400018D0010E0C6E04D0D8900A360B360C2A37
:101550000BAEFAD70A50085C0B500958D8A004D03B
:101560000A50085E0B50095AD8900B320A320C2EE2
:10157000F1D708C008F009C009F01200000E026E91
:10158000000E016E10D0350E0124D96E000E02201F
:10159000DA6EDF50AD6E014A022A290EE82EFED720
:1015A00000D09EA8FED7350E0124D96E000E022071
:1015B000DA6EDF50D8B41200E6D70D6E0DC0A9FF69
:1015C000A69EA69CA680A8CF2EF02E500B6E0C6A6D
:1015D000D8902934D96E2A34DA6E000ED926010E3D
:1015E000DA220BC0DEFF0CC0DDFF294A2A2A28ECD4
:1015F0000AF01200036EA68403C0A9FF01C0A8FF71
:10160000A69EA69CF29E550EA76EAA0EA76EA68257
:10161000F28EA6B2FED7A69412009268000E956EC6
:10162000000E836E000E806E9C8E010EC26E000E48
:10163000C16E000EC06E1200948E949CAC98AC9457
:101640007E960F0EAF6EAB8EAC8A1200AB889EAA50
:0E165000FED7AECF2DF01200C29012000D207A
:020000040020DA
:08000000FFFFFFFFFFFFFFFF00
:020000040030CA
:0E000000FF021F1EF38384FFFFC0FFE0FF40DE
:00000001FF
