:040000005AEF0AF0B9
:101000000001000A006400E8031027417665726160
:101010006765206F66206C617374203530205361E2
:101020006D706C65733A202564206D4100507265C7
:101030007373205320746F20537461727420436F54
:101040006D6D756E69636174696F6E3A0053616DA1
:10105000706C696E67206E756D6265722025643AEA
:10106000202564206D41203A0000110E166E000EFE
:10107000176E94D0250E1C18D8B409D00DC0D9FF16
:101080000EC0DAFF1CC0DFFF0D4A0E2A87D0000E0B
:10109000186E0FC0F6FF10C0F7FF0F4A102A000E9F
:1010A000F86E0800F5CF1CF01C50000AD8B484D0AC
:1010B000640AD8B403D00D0AD8A470D016C0D9FFE2
:1010C00017C0DAFFDECF1AF0DDCF1BF0020E1626B6
:1010D000000E17221BAE06D0030E18121A6C1B1E30
:1010E000D8B01B2A010E1C6E050E1C18D8B415D0E2
:1010F0001C50020D010EF324F66E100EF420F76E54
:10110000F86A000EF8220900F5501A5C0900F55043
:101110001B58D8A002D01C2AE7D718C015F0030E20
:101120001516D8B408D00DC0D9FF0EC0DAFF2D0EA9
:10113000DF6E0D4A0E2A1CC019F02CD01950020D7A
:10114000010EF324F66E100EF420F76EF86A000E0E
:10115000F8220900F5CF03F00A00F5CF04F01AC019
:1011600001F01BC002F00CEC0AF001C008F002C054
:1011700009F0000E0B6E0A0E0A6E7BEC0AF00850A6
:10118000300F1C6E0DC0D9FF0EC0DAFF1CC0DFFF90
:101190000D4A0E2A19061928D8A4D0D70FC0F6FF79
:1011A00010C0F7FF0F4A102A000EF86E0800F5CFA6
:1011B0001CF01C50D8A45ED70DC0D9FF0EC0DAFFBA
:1011C000000EDF6E1200000E956E9268EAEC0AF0D7
:1011D000350E0D6E000E0E6E2D0E0F6E100E106E73
:1011E00035EC08F0B7EC0AF0EAEC0AF0D1EC0AF0C2
:1011F000F4EC0AF0B3EC09F0000E226E000E216E42
:10120000000E246E000E236E14D0D8902334D96EB5
:101210002434DA6E600ED926000EDA22DECF01F019
:10122000DDCF02F021509CEC0AF0214A222A234A09
:10123000242A24BEEAD7245004E1330E235CD8A02C
:10124000E4D7530E2D18D8A448D0FAEC0AF0000EBB
:10125000266E000E256E26BE06D0265023E1330EE4
:10126000255CD8B01FD0255035EC0AF0000E1E6E5C
:10127000000E1D6E1D4A1E2A350E0D6E000E0E6EDE
:101280004D0E0F6E100E106E25C011F026C012F01C
:101290002EC013F0146A35EC08F0B7EC0AF0254ABA
:1012A000262AD9D7410E2D18D8A49ED7000E206E1D
:1012B000000E1F6E1F4A202A350E0D6E000E0E6E98
:1012C0000B0E0F6E100E106E27C011F028C012F01A
:1012D00035EC08F0B7EC0AF087D7AC9AB3EC09F01C
:1012E00083D7000E066E04AE06D0036C041ED8B081
:1012F000042A010E066E02AE06D0016C021ED8B0A2
:10130000022A010E061A000E086E000E076E035028
:101310000410D8B41CD0010E056E04D0D89003364A
:101320000436052A04AEFAD7D8900736083603509B
:10133000015C04500258D8A005D00350015E04504F
:10134000025A0780D89004320332052EEDD706509A
:10135000D8B404D0076C081ED8B0082A07C001F022
:1013600008C002F01200000E046E000E036E04BEF0
:1013700006D0045025E1330E035CD8B01200C282BF
:10138000C2B2FED7C450016E026AD8900334D96E3F
:101390000434DA6E600ED926000EDA2201C0DEFFB8
:1013A00002C0DDFF070E026E580E016E5A0EE82EC7
:1013B000FED7012EFCD7022EFAD7034A042AD7D72C
:1013C0001200000E0A6E000E096E0ABE06D00A5008
:1013D00014E1330E095CD8B010D0D8900934D96E1E
:1013E0000A34DA6E000ED926010EDA22DE502726E4
:1013F000DD502822094A0A2AE8D727C001F028C070
:1014000002F0000E046E320E036E71EC09F001C0A2
:1014100027F002C028F01200000E066E000E056EC6
:1014200003500410D8B41CD0010E076E04D0D8901D
:1014300003360436072A04AEFAD7D89005360636A6
:101440000350015C04500258D8A005D00350015E3F
:101450000450025A0580D89004320332072EEDD78B
:1014600005C001F006C002F012000D6EA30E0B6E57
:10147000550EE82EFED70B2EFCD700F00DC0A9FFAD
:10148000A69EA69CA680A8CF2EF02E500B6E0C6AAE
:10149000D8902934D96E2A34DA6E000ED926010E7E
:1014A000DA220BC0DEFF0CC0DDFF294A2A2AE1EC5C
:1014B00009F01200F80EF66E150EF76E000EF86EBB
:1014C0000900F5CF38F00900F5CF39F001EE00F052
:1014D000640EEE6AE806FDE100EE60F0960EEE6A3C
:1014E000E806FDE100EE27F0110EEE6AE806FDE1E8
:1014F0000001E3EF08F00A500B10D8B418D0010E29
:101500000C6E04D0D8900A360B360C2A0BAEFAD7E4
:101510000A50085C0B500958D8A004D00A50085E45
:101520000B50095AD8900B320A320C2EF1D708C052
:1015300008F009C009F01200046EA30E036E550EE8
:10154000E82EFED7032EFCD700F0A68404C0A9FF26
:1015500001C0A8FFA69EA69CF29E550EA76EAA0EDD
:10156000A76EA682F28EA6B2FED7A6941200000E37
:10157000036E000E026E0BD0350E0224D96E000EE3
:101580000320DA6EDF50E0EC0AF0024A032A350E3F
:101590000224D96E000E0320DA6EDF50D8B4120098
:1015A000EBD79268000E956E000E836E000E806E73
:1015B0009C8E010EC26E000EC16E000EC06E120037
:1015C000016E01C0ADFF290EE82EFED700D09EB8F7
:1015D0001200FDD7948E949CAC98AC947E960F0E1E
:1015E000AF6EAB8EAC8A1200AB889EAAFED7AECF90
:0A15F0002DF01200C29012000D2031
:020000040020DA
:08000000FFFFFFFFFFFFFFFF00
:020000040030CA
:0E000000FF021F1FF38385FFFFC0FFE0FF40DC
:00000001FF
